{
  "address": "0x5FbDB2315678afecb367f032d93F642f64180aa3",
  "abi": [
    {
      "inputs": [],
      "name": "complete",
      "outputs": [],
      "stateMutability": "payable",
      "type": "function"
    },
    {
      "inputs": [],
      "name": "completed",
      "outputs": [
        {
          "internalType": "bool",
          "name": "",
          "type": "bool"
        }
      ],
      "stateMutability": "view",
      "type": "function"
    }
  ],
  "transactionHash": "0x1cfce2494c44f12590b99b690b08d6e1bcf9b44f72fa40c75a5a5da439b035e7",
  "args": [],
  "solcInputHash": "310da0030ac8125d7f85b33b81e4221f",
  "bytecode": "0x6080604052348015600f57600080fd5b5060a08061001e6000396000f3fe60806040526004361060265760003560e01c8063522e117714602b5780639d9a7fe914603e575b600080fd5b603c6000805460ff19166001179055565b005b348015604957600080fd5b5060005460569060ff1681565b604051901515815260200160405180910390f3fea264697066735822122078cb7cc66425be6252053253e4ff0dbf799757e4555eecdd178860c8a3d4634764736f6c63430008040033",
  "devdoc": {
    "kind": "dev",
    "methods": {},
    "version": 1
  },
  "userdoc": {
    "kind": "user",
    "methods": {},
    "version": 1
  },
  "storageLayout": {
    "storage": [
      {
        "astId": 3,
        "contract": "contracts/ExampleExternalContract.sol:ExampleExternalContract",
        "label": "completed",
        "offset": 0,
        "slot": "0",
        "type": "t_bool"
      }
    ],
    "types": {
      "t_bool": {
        "encoding": "inplace",
        "label": "bool",
        "numberOfBytes": "1"
      }
    }
  }
}