{
  "contracts/MultiSigContract.sol": {
    "MultiSigWallet": {
      "abi": [
        {
          "inputs": [
            {
              "internalType": "address payable",
              "name": "_disputer",
              "type": "address"
            },
            {
              "internalType": "address payable",
              "name": "_disputee",
              "type": "address"
            },
            {
              "internalType": "address[]",
              "name": "_arbitrators",
              "type": "address[]"
            },
            {
              "internalType": "uint256",
              "name": "_required",
              "type": "uint256"
            }
          ],
          "stateMutability": "payable",
          "type": "constructor"
        },
        {
          "anonymous": false,
          "inputs": [
            {
              "indexed": false,
              "internalType": "uint256",
              "name": "ApprovalCount",
              "type": "uint256"
            }
          ],
          "name": "Approve",
          "type": "event"
        },
        {
          "anonymous": false,
          "inputs": [
            {
              "indexed": false,
              "internalType": "address",
              "name": "sender",
              "type": "address"
            },
            {
              "indexed": false,
              "internalType": "uint256",
              "name": "value",
              "type": "uint256"
            }
          ],
          "name": "Deposit",
          "type": "event"
        },
        {
          "anonymous": false,
          "inputs": [
            {
              "indexed": false,
              "internalType": "uint256",
              "name": "time",
              "type": "uint256"
            }
          ],
          "name": "Execution",
          "type": "event"
        },
        {
          "stateMutability": "payable",
          "type": "fallback"
        },
        {
          "inputs": [],
          "name": "ApprovalCount",
          "outputs": [
            {
              "internalType": "uint256",
              "name": "",
              "type": "uint256"
            }
          ],
          "stateMutability": "view",
          "type": "function"
        },
        {
          "inputs": [],
          "name": "ApproveDispute",
          "outputs": [],
          "stateMutability": "nonpayable",
          "type": "function"
        },
        {
          "inputs": [
            {
              "internalType": "uint256",
              "name": "",
              "type": "uint256"
            }
          ],
          "name": "arbitrators",
          "outputs": [
            {
              "internalType": "address",
              "name": "",
              "type": "address"
            }
          ],
          "stateMutability": "view",
          "type": "function"
        },
        {
          "inputs": [],
          "name": "depositFunds",
          "outputs": [],
          "stateMutability": "payable",
          "type": "function"
        },
        {
          "inputs": [],
          "name": "disputee",
          "outputs": [
            {
              "internalType": "address payable",
              "name": "",
              "type": "address"
            }
          ],
          "stateMutability": "view",
          "type": "function"
        },
        {
          "inputs": [],
          "name": "disputer",
          "outputs": [
            {
              "internalType": "address payable",
              "name": "",
              "type": "address"
            }
          ],
          "stateMutability": "view",
          "type": "function"
        },
        {
          "inputs": [],
          "name": "getBalance",
          "outputs": [
            {
              "internalType": "uint256",
              "name": "",
              "type": "uint256"
            }
          ],
          "stateMutability": "view",
          "type": "function"
        },
        {
          "inputs": [],
          "name": "getConfirmationCount",
          "outputs": [
            {
              "internalType": "uint256",
              "name": "",
              "type": "uint256"
            }
          ],
          "stateMutability": "view",
          "type": "function"
        },
        {
          "inputs": [],
          "name": "getResult",
          "outputs": [],
          "stateMutability": "nonpayable",
          "type": "function"
        },
        {
          "inputs": [],
          "name": "getState",
          "outputs": [
            {
              "internalType": "enum MultiSigWallet.State",
              "name": "",
              "type": "uint8"
            }
          ],
          "stateMutability": "view",
          "type": "function"
        },
        {
          "inputs": [],
          "name": "getTimeLeft",
          "outputs": [
            {
              "internalType": "uint256",
              "name": "",
              "type": "uint256"
            }
          ],
          "stateMutability": "view",
          "type": "function"
        },
        {
          "inputs": [
            {
              "internalType": "address",
              "name": "",
              "type": "address"
            }
          ],
          "name": "isApprover",
          "outputs": [
            {
              "internalType": "bool",
              "name": "",
              "type": "bool"
            }
          ],
          "stateMutability": "view",
          "type": "function"
        },
        {
          "inputs": [
            {
              "internalType": "address",
              "name": "",
              "type": "address"
            }
          ],
          "name": "isArbitrator",
          "outputs": [
            {
              "internalType": "bool",
              "name": "",
              "type": "bool"
            }
          ],
          "stateMutability": "view",
          "type": "function"
        },
        {
          "inputs": [],
          "name": "required",
          "outputs": [
            {
              "internalType": "uint256",
              "name": "",
              "type": "uint256"
            }
          ],
          "stateMutability": "view",
          "type": "function"
        },
        {
          "inputs": [],
          "name": "state",
          "outputs": [
            {
              "internalType": "enum MultiSigWallet.State",
              "name": "",
              "type": "uint8"
            }
          ],
          "stateMutability": "view",
          "type": "function"
        },
        {
          "inputs": [],
          "name": "time_created",
          "outputs": [
            {
              "internalType": "uint256",
              "name": "",
              "type": "uint256"
            }
          ],
          "stateMutability": "view",
          "type": "function"
        },
        {
          "stateMutability": "payable",
          "type": "receive"
        }
      ],
      "evm": {
        "bytecode": {
          "linkReferences": {},
          "object": "608060405260405162000ccf38038062000ccf83398101604081905262000026916200021b565b8015801590620000365750815115155b6200004057600080fd5b60005b8251811015620000f85760008084838151811062000065576200006562000321565b6020908102919091018101516001600160a01b031682528101919091526040016000205460ff16156200009757600080fd5b6001600080858481518110620000b157620000b162000321565b6020908102919091018101516001600160a01b03168252810191909152604001600020805460ff191691151591909117905580620000ef8162000337565b91505062000043565b50600380546001600160a01b038087166001600160a01b031992831617909255600480549286169290911691909117905581516200013e90600290602085019062000159565b5060055550506008805460ff1916905550426007556200035f565b828054828255906000526020600020908101928215620001b1579160200282015b82811115620001b157825182546001600160a01b0319166001600160a01b039091161782556020909201916001909101906200017a565b50620001bf929150620001c3565b5090565b5b80821115620001bf5760008155600101620001c4565b6001600160a01b0381168114620001f057600080fd5b50565b634e487b7160e01b600052604160045260246000fd5b80516200021681620001da565b919050565b600080600080608085870312156200023257600080fd5b84516200023f81620001da565b809450506020808601516200025481620001da565b60408701519094506001600160401b03808211156200027257600080fd5b818801915088601f8301126200028757600080fd5b8151818111156200029c576200029c620001f3565b8060051b604051601f19603f83011681018181108582111715620002c457620002c4620001f3565b60405291825284820192508381018501918b831115620002e357600080fd5b938501935b828510156200030c57620002fc8562000209565b84529385019392850192620002e8565b60609a909a0151989b979a5050505050505050565b634e487b7160e01b600052603260045260246000fd5b6000600182016200035857634e487b7160e01b600052601160045260246000fd5b5060010190565b610960806200036f6000396000f3fe6080604052600436106100eb5760003560e01c80639f6bd2a911610084578063dc8452cd11610056578063dc8452cd1461028a578063de292789146102a0578063e2c41dbc146102b5578063fc2ac367146102bd57005b80639f6bd2a91461020b578063a6430cc01461023b578063c19d93fb1461025b578063c7e284b81461027557005b80636ac56103116100bd5780636ac56103146101685780636d218e48146101a05780636eec3515146101e057806391f78e4c146101f657005b806312065fe0146100f45780631865c57d1461011c57806343efa9ec1461013d578063639d7a071461015257005b366100f257005b005b34801561010057600080fd5b506101096102dd565b6040519081526020015b60405180910390f35b34801561012857600080fd5b5060085460ff165b6040516101139190610852565b34801561014957600080fd5b506100f2610322565b34801561015e57600080fd5b5061010960075481565b34801561017457600080fd5b50600354610188906001600160a01b031681565b6040516001600160a01b039091168152602001610113565b3480156101ac57600080fd5b506101d06101bb36600461087a565b60016020526000908152604090205460ff1681565b6040519015158152602001610113565b3480156101ec57600080fd5b5061010960065481565b34801561020257600080fd5b50600654610109565b34801561021757600080fd5b506101d061022636600461087a565b60006020819052908152604090205460ff1681565b34801561024757600080fd5b506101886102563660046108aa565b610520565b34801561026757600080fd5b506008546101309060ff1681565b34801561028157600080fd5b5061010961054a565b34801561029657600080fd5b5061010960055481565b3480156102ac57600080fd5b506100f26105b5565b6100f261076f565b3480156102c957600080fd5b50600454610188906001600160a01b031681565b600060016018603c80600754426102f491906108d9565b6102fe91906108f0565b61030891906108f0565b61031291906108f0565b111561031d57600080fd5b504790565b3360008181526020819052604090205460ff1661033e57600080fd5b3360008181526001602052604090205460ff161561035b57600080fd5b60016018603c806007544261037091906108d9565b61037a91906108f0565b61038491906108f0565b61038e91906108f0565b111561039957600080fd5b60018060085460ff1660038111156103b3576103b361083c565b146103bd57600080fd5b3360009081526001602081905260408220805460ff19168217905560068054919290916103eb908490610912565b90915550506006546040519081527f77b92c0722e5bbe8d1413b7fbec6093bc4dc966a65832498dc8c2c67d9a937cc9060200160405180910390a16005546006541061051b576008805460ff191660021790556003546040516000916001600160a01b03169047908381818185875af1925050503d806000811461048b576040519150601f19603f3d011682016040523d82523d6000602084013e610490565b606091505b50509050806104e65760405162461bcd60e51b815260206004820181905260248201527f4661696c656420746f2073656e642066756e647320746f20646973707574657260448201526064015b60405180910390fd5b6040514281527f33e13ecb54c3076d8e8bb8c2881800a4d972b792045ffae98fdf46df365fed759060200160405180910390a1505b505050565b6002818154811061053057600080fd5b6000918252602090912001546001600160a01b0316905081565b600060016018603c806007544261056191906108d9565b61056b91906108f0565b61057591906108f0565b61057f91906108f0565b111561058a57600080fd5b603c6007544261059a91906108d9565b6105a491906108f0565b6105b0906105a06108d9565b905090565b60016018603c80600754426105ca91906108d9565b6105d491906108f0565b6105de91906108f0565b6105e891906108f0565b116105f257600080fd5b60055460065410156106b0576008805460ff191660031790556004546040516000916001600160a01b03169047908381818185875af1925050503d8060008114610658576040519150601f19603f3d011682016040523d82523d6000602084013e61065d565b606091505b50509050806106ae5760405162461bcd60e51b815260206004820181905260248201527f4661696c656420746f2073656e642066756e647320746f20646973707574656560448201526064016104dd565b505b6005546006541061076d576008805460ff191660021790556003546040516000916001600160a01b03169047908381818185875af1925050503d8060008114610715576040519150601f19603f3d011682016040523d82523d6000602084013e61071a565b606091505b505090508061076b5760405162461bcd60e51b815260206004820181905260248201527f4661696c656420746f2073656e642066756e647320746f20646973707574657260448201526064016104dd565b505b565b60008060085460ff1660038111156107895761078961083c565b1461079357600080fd5b6008805460ff19166001179055604051600090309034908381818185875af1925050503d80600081146107e2576040519150601f19603f3d011682016040523d82523d6000602084013e6107e7565b606091505b50509050806108385760405162461bcd60e51b815260206004820181905260248201527f4661696c656420746f2073656e642066756e647320746f206d756c746973696760448201526064016104dd565b5050565b634e487b7160e01b600052602160045260246000fd5b602081016004831061087457634e487b7160e01b600052602160045260246000fd5b91905290565b60006020828403121561088c57600080fd5b81356001600160a01b03811681146108a357600080fd5b9392505050565b6000602082840312156108bc57600080fd5b5035919050565b634e487b7160e01b600052601160045260246000fd5b6000828210156108eb576108eb6108c3565b500390565b60008261090d57634e487b7160e01b600052601260045260246000fd5b500490565b60008219821115610925576109256108c3565b50019056fea2646970667358221220c41168ee950f0873fccdd06700976b60952ecbd0fb976b1490ef4a44ff097e4864736f6c634300080d0033",
          "opcodes": "PUSH1 0x80 PUSH1 0x40 MSTORE PUSH1 0x40 MLOAD PUSH3 0xCCF CODESIZE SUB DUP1 PUSH3 0xCCF DUP4 CODECOPY DUP2 ADD PUSH1 0x40 DUP2 SWAP1 MSTORE PUSH3 0x26 SWAP2 PUSH3 0x21B JUMP JUMPDEST DUP1 ISZERO DUP1 ISZERO SWAP1 PUSH3 0x36 JUMPI POP DUP2 MLOAD ISZERO ISZERO JUMPDEST PUSH3 0x40 JUMPI PUSH1 0x0 DUP1 REVERT JUMPDEST PUSH1 0x0 JUMPDEST DUP3 MLOAD DUP2 LT ISZERO PUSH3 0xF8 JUMPI PUSH1 0x0 DUP1 DUP5 DUP4 DUP2 MLOAD DUP2 LT PUSH3 0x65 JUMPI PUSH3 0x65 PUSH3 0x321 JUMP JUMPDEST PUSH1 0x20 SWAP1 DUP2 MUL SWAP2 SWAP1 SWAP2 ADD DUP2 ADD MLOAD PUSH1 0x1 PUSH1 0x1 PUSH1 0xA0 SHL SUB AND DUP3 MSTORE DUP2 ADD SWAP2 SWAP1 SWAP2 MSTORE PUSH1 0x40 ADD PUSH1 0x0 KECCAK256 SLOAD PUSH1 0xFF AND ISZERO PUSH3 0x97 JUMPI PUSH1 0x0 DUP1 REVERT JUMPDEST PUSH1 0x1 PUSH1 0x0 DUP1 DUP6 DUP5 DUP2 MLOAD DUP2 LT PUSH3 0xB1 JUMPI PUSH3 0xB1 PUSH3 0x321 JUMP JUMPDEST PUSH1 0x20 SWAP1 DUP2 MUL SWAP2 SWAP1 SWAP2 ADD DUP2 ADD MLOAD PUSH1 0x1 PUSH1 0x1 PUSH1 0xA0 SHL SUB AND DUP3 MSTORE DUP2 ADD SWAP2 SWAP1 SWAP2 MSTORE PUSH1 0x40 ADD PUSH1 0x0 KECCAK256 DUP1 SLOAD PUSH1 0xFF NOT AND SWAP2 ISZERO ISZERO SWAP2 SWAP1 SWAP2 OR SWAP1 SSTORE DUP1 PUSH3 0xEF DUP2 PUSH3 0x337 JUMP JUMPDEST SWAP2 POP POP PUSH3 0x43 JUMP JUMPDEST POP PUSH1 0x3 DUP1 SLOAD PUSH1 0x1 PUSH1 0x1 PUSH1 0xA0 SHL SUB DUP1 DUP8 AND PUSH1 0x1 PUSH1 0x1 PUSH1 0xA0 SHL SUB NOT SWAP3 DUP4 AND OR SWAP1 SWAP3 SSTORE PUSH1 0x4 DUP1 SLOAD SWAP3 DUP7 AND SWAP3 SWAP1 SWAP2 AND SWAP2 SWAP1 SWAP2 OR SWAP1 SSTORE DUP2 MLOAD PUSH3 0x13E SWAP1 PUSH1 0x2 SWAP1 PUSH1 0x20 DUP6 ADD SWAP1 PUSH3 0x159 JUMP JUMPDEST POP PUSH1 0x5 SSTORE POP POP PUSH1 0x8 DUP1 SLOAD PUSH1 0xFF NOT AND SWAP1 SSTORE POP TIMESTAMP PUSH1 0x7 SSTORE PUSH3 0x35F JUMP JUMPDEST DUP3 DUP1 SLOAD DUP3 DUP3 SSTORE SWAP1 PUSH1 0x0 MSTORE PUSH1 0x20 PUSH1 0x0 KECCAK256 SWAP1 DUP2 ADD SWAP3 DUP3 ISZERO PUSH3 0x1B1 JUMPI SWAP2 PUSH1 0x20 MUL DUP3 ADD JUMPDEST DUP3 DUP2 GT ISZERO PUSH3 0x1B1 JUMPI DUP3 MLOAD DUP3 SLOAD PUSH1 0x1 PUSH1 0x1 PUSH1 0xA0 SHL SUB NOT AND PUSH1 0x1 PUSH1 0x1 PUSH1 0xA0 SHL SUB SWAP1 SWAP2 AND OR DUP3 SSTORE PUSH1 0x20 SWAP1 SWAP3 ADD SWAP2 PUSH1 0x1 SWAP1 SWAP2 ADD SWAP1 PUSH3 0x17A JUMP JUMPDEST POP PUSH3 0x1BF SWAP3 SWAP2 POP PUSH3 0x1C3 JUMP JUMPDEST POP SWAP1 JUMP JUMPDEST JUMPDEST DUP1 DUP3 GT ISZERO PUSH3 0x1BF JUMPI PUSH1 0x0 DUP2 SSTORE PUSH1 0x1 ADD PUSH3 0x1C4 JUMP JUMPDEST PUSH1 0x1 PUSH1 0x1 PUSH1 0xA0 SHL SUB DUP2 AND DUP2 EQ PUSH3 0x1F0 JUMPI PUSH1 0x0 DUP1 REVERT JUMPDEST POP JUMP JUMPDEST PUSH4 0x4E487B71 PUSH1 0xE0 SHL PUSH1 0x0 MSTORE PUSH1 0x41 PUSH1 0x4 MSTORE PUSH1 0x24 PUSH1 0x0 REVERT JUMPDEST DUP1 MLOAD PUSH3 0x216 DUP2 PUSH3 0x1DA JUMP JUMPDEST SWAP2 SWAP1 POP JUMP JUMPDEST PUSH1 0x0 DUP1 PUSH1 0x0 DUP1 PUSH1 0x80 DUP6 DUP8 SUB SLT ISZERO PUSH3 0x232 JUMPI PUSH1 0x0 DUP1 REVERT JUMPDEST DUP5 MLOAD PUSH3 0x23F DUP2 PUSH3 0x1DA JUMP JUMPDEST DUP1 SWAP5 POP POP PUSH1 0x20 DUP1 DUP7 ADD MLOAD PUSH3 0x254 DUP2 PUSH3 0x1DA JUMP JUMPDEST PUSH1 0x40 DUP8 ADD MLOAD SWAP1 SWAP5 POP PUSH1 0x1 PUSH1 0x1 PUSH1 0x40 SHL SUB DUP1 DUP3 GT ISZERO PUSH3 0x272 JUMPI PUSH1 0x0 DUP1 REVERT JUMPDEST DUP2 DUP9 ADD SWAP2 POP DUP9 PUSH1 0x1F DUP4 ADD SLT PUSH3 0x287 JUMPI PUSH1 0x0 DUP1 REVERT JUMPDEST DUP2 MLOAD DUP2 DUP2 GT ISZERO PUSH3 0x29C JUMPI PUSH3 0x29C PUSH3 0x1F3 JUMP JUMPDEST DUP1 PUSH1 0x5 SHL PUSH1 0x40 MLOAD PUSH1 0x1F NOT PUSH1 0x3F DUP4 ADD AND DUP2 ADD DUP2 DUP2 LT DUP6 DUP3 GT OR ISZERO PUSH3 0x2C4 JUMPI PUSH3 0x2C4 PUSH3 0x1F3 JUMP JUMPDEST PUSH1 0x40 MSTORE SWAP2 DUP3 MSTORE DUP5 DUP3 ADD SWAP3 POP DUP4 DUP2 ADD DUP6 ADD SWAP2 DUP12 DUP4 GT ISZERO PUSH3 0x2E3 JUMPI PUSH1 0x0 DUP1 REVERT JUMPDEST SWAP4 DUP6 ADD SWAP4 JUMPDEST DUP3 DUP6 LT ISZERO PUSH3 0x30C JUMPI PUSH3 0x2FC DUP6 PUSH3 0x209 JUMP JUMPDEST DUP5 MSTORE SWAP4 DUP6 ADD SWAP4 SWAP3 DUP6 ADD SWAP3 PUSH3 0x2E8 JUMP JUMPDEST PUSH1 0x60 SWAP11 SWAP1 SWAP11 ADD MLOAD SWAP9 SWAP12 SWAP8 SWAP11 POP POP POP POP POP POP POP POP JUMP JUMPDEST PUSH4 0x4E487B71 PUSH1 0xE0 SHL PUSH1 0x0 MSTORE PUSH1 0x32 PUSH1 0x4 MSTORE PUSH1 0x24 PUSH1 0x0 REVERT JUMPDEST PUSH1 0x0 PUSH1 0x1 DUP3 ADD PUSH3 0x358 JUMPI PUSH4 0x4E487B71 PUSH1 0xE0 SHL PUSH1 0x0 MSTORE PUSH1 0x11 PUSH1 0x4 MSTORE PUSH1 0x24 PUSH1 0x0 REVERT JUMPDEST POP PUSH1 0x1 ADD SWAP1 JUMP JUMPDEST PUSH2 0x960 DUP1 PUSH3 0x36F PUSH1 0x0 CODECOPY PUSH1 0x0 RETURN INVALID PUSH1 0x80 PUSH1 0x40 MSTORE PUSH1 0x4 CALLDATASIZE LT PUSH2 0xEB JUMPI PUSH1 0x0 CALLDATALOAD PUSH1 0xE0 SHR DUP1 PUSH4 0x9F6BD2A9 GT PUSH2 0x84 JUMPI DUP1 PUSH4 0xDC8452CD GT PUSH2 0x56 JUMPI DUP1 PUSH4 0xDC8452CD EQ PUSH2 0x28A JUMPI DUP1 PUSH4 0xDE292789 EQ PUSH2 0x2A0 JUMPI DUP1 PUSH4 0xE2C41DBC EQ PUSH2 0x2B5 JUMPI DUP1 PUSH4 0xFC2AC367 EQ PUSH2 0x2BD JUMPI STOP JUMPDEST DUP1 PUSH4 0x9F6BD2A9 EQ PUSH2 0x20B JUMPI DUP1 PUSH4 0xA6430CC0 EQ PUSH2 0x23B JUMPI DUP1 PUSH4 0xC19D93FB EQ PUSH2 0x25B JUMPI DUP1 PUSH4 0xC7E284B8 EQ PUSH2 0x275 JUMPI STOP JUMPDEST DUP1 PUSH4 0x6AC56103 GT PUSH2 0xBD JUMPI DUP1 PUSH4 0x6AC56103 EQ PUSH2 0x168 JUMPI DUP1 PUSH4 0x6D218E48 EQ PUSH2 0x1A0 JUMPI DUP1 PUSH4 0x6EEC3515 EQ PUSH2 0x1E0 JUMPI DUP1 PUSH4 0x91F78E4C EQ PUSH2 0x1F6 JUMPI STOP JUMPDEST DUP1 PUSH4 0x12065FE0 EQ PUSH2 0xF4 JUMPI DUP1 PUSH4 0x1865C57D EQ PUSH2 0x11C JUMPI DUP1 PUSH4 0x43EFA9EC EQ PUSH2 0x13D JUMPI DUP1 PUSH4 0x639D7A07 EQ PUSH2 0x152 JUMPI STOP JUMPDEST CALLDATASIZE PUSH2 0xF2 JUMPI STOP JUMPDEST STOP JUMPDEST CALLVALUE DUP1 ISZERO PUSH2 0x100 JUMPI PUSH1 0x0 DUP1 REVERT JUMPDEST POP PUSH2 0x109 PUSH2 0x2DD JUMP JUMPDEST PUSH1 0x40 MLOAD SWAP1 DUP2 MSTORE PUSH1 0x20 ADD JUMPDEST PUSH1 0x40 MLOAD DUP1 SWAP2 SUB SWAP1 RETURN JUMPDEST CALLVALUE DUP1 ISZERO PUSH2 0x128 JUMPI PUSH1 0x0 DUP1 REVERT JUMPDEST POP PUSH1 0x8 SLOAD PUSH1 0xFF AND JUMPDEST PUSH1 0x40 MLOAD PUSH2 0x113 SWAP2 SWAP1 PUSH2 0x852 JUMP JUMPDEST CALLVALUE DUP1 ISZERO PUSH2 0x149 JUMPI PUSH1 0x0 DUP1 REVERT JUMPDEST POP PUSH2 0xF2 PUSH2 0x322 JUMP JUMPDEST CALLVALUE DUP1 ISZERO PUSH2 0x15E JUMPI PUSH1 0x0 DUP1 REVERT JUMPDEST POP PUSH2 0x109 PUSH1 0x7 SLOAD DUP2 JUMP JUMPDEST CALLVALUE DUP1 ISZERO PUSH2 0x174 JUMPI PUSH1 0x0 DUP1 REVERT JUMPDEST POP PUSH1 0x3 SLOAD PUSH2 0x188 SWAP1 PUSH1 0x1 PUSH1 0x1 PUSH1 0xA0 SHL SUB AND DUP2 JUMP JUMPDEST PUSH1 0x40 MLOAD PUSH1 0x1 PUSH1 0x1 PUSH1 0xA0 SHL SUB SWAP1 SWAP2 AND DUP2 MSTORE PUSH1 0x20 ADD PUSH2 0x113 JUMP JUMPDEST CALLVALUE DUP1 ISZERO PUSH2 0x1AC JUMPI PUSH1 0x0 DUP1 REVERT JUMPDEST POP PUSH2 0x1D0 PUSH2 0x1BB CALLDATASIZE PUSH1 0x4 PUSH2 0x87A JUMP JUMPDEST PUSH1 0x1 PUSH1 0x20 MSTORE PUSH1 0x0 SWAP1 DUP2 MSTORE PUSH1 0x40 SWAP1 KECCAK256 SLOAD PUSH1 0xFF AND DUP2 JUMP JUMPDEST PUSH1 0x40 MLOAD SWAP1 ISZERO ISZERO DUP2 MSTORE PUSH1 0x20 ADD PUSH2 0x113 JUMP JUMPDEST CALLVALUE DUP1 ISZERO PUSH2 0x1EC JUMPI PUSH1 0x0 DUP1 REVERT JUMPDEST POP PUSH2 0x109 PUSH1 0x6 SLOAD DUP2 JUMP JUMPDEST CALLVALUE DUP1 ISZERO PUSH2 0x202 JUMPI PUSH1 0x0 DUP1 REVERT JUMPDEST POP PUSH1 0x6 SLOAD PUSH2 0x109 JUMP JUMPDEST CALLVALUE DUP1 ISZERO PUSH2 0x217 JUMPI PUSH1 0x0 DUP1 REVERT JUMPDEST POP PUSH2 0x1D0 PUSH2 0x226 CALLDATASIZE PUSH1 0x4 PUSH2 0x87A JUMP JUMPDEST PUSH1 0x0 PUSH1 0x20 DUP2 SWAP1 MSTORE SWAP1 DUP2 MSTORE PUSH1 0x40 SWAP1 KECCAK256 SLOAD PUSH1 0xFF AND DUP2 JUMP JUMPDEST CALLVALUE DUP1 ISZERO PUSH2 0x247 JUMPI PUSH1 0x0 DUP1 REVERT JUMPDEST POP PUSH2 0x188 PUSH2 0x256 CALLDATASIZE PUSH1 0x4 PUSH2 0x8AA JUMP JUMPDEST PUSH2 0x520 JUMP JUMPDEST CALLVALUE DUP1 ISZERO PUSH2 0x267 JUMPI PUSH1 0x0 DUP1 REVERT JUMPDEST POP PUSH1 0x8 SLOAD PUSH2 0x130 SWAP1 PUSH1 0xFF AND DUP2 JUMP JUMPDEST CALLVALUE DUP1 ISZERO PUSH2 0x281 JUMPI PUSH1 0x0 DUP1 REVERT JUMPDEST POP PUSH2 0x109 PUSH2 0x54A JUMP JUMPDEST CALLVALUE DUP1 ISZERO PUSH2 0x296 JUMPI PUSH1 0x0 DUP1 REVERT JUMPDEST POP PUSH2 0x109 PUSH1 0x5 SLOAD DUP2 JUMP JUMPDEST CALLVALUE DUP1 ISZERO PUSH2 0x2AC JUMPI PUSH1 0x0 DUP1 REVERT JUMPDEST POP PUSH2 0xF2 PUSH2 0x5B5 JUMP JUMPDEST PUSH2 0xF2 PUSH2 0x76F JUMP JUMPDEST CALLVALUE DUP1 ISZERO PUSH2 0x2C9 JUMPI PUSH1 0x0 DUP1 REVERT JUMPDEST POP PUSH1 0x4 SLOAD PUSH2 0x188 SWAP1 PUSH1 0x1 PUSH1 0x1 PUSH1 0xA0 SHL SUB AND DUP2 JUMP JUMPDEST PUSH1 0x0 PUSH1 0x1 PUSH1 0x18 PUSH1 0x3C DUP1 PUSH1 0x7 SLOAD TIMESTAMP PUSH2 0x2F4 SWAP2 SWAP1 PUSH2 0x8D9 JUMP JUMPDEST PUSH2 0x2FE SWAP2 SWAP1 PUSH2 0x8F0 JUMP JUMPDEST PUSH2 0x308 SWAP2 SWAP1 PUSH2 0x8F0 JUMP JUMPDEST PUSH2 0x312 SWAP2 SWAP1 PUSH2 0x8F0 JUMP JUMPDEST GT ISZERO PUSH2 0x31D JUMPI PUSH1 0x0 DUP1 REVERT JUMPDEST POP SELFBALANCE SWAP1 JUMP JUMPDEST CALLER PUSH1 0x0 DUP2 DUP2 MSTORE PUSH1 0x20 DUP2 SWAP1 MSTORE PUSH1 0x40 SWAP1 KECCAK256 SLOAD PUSH1 0xFF AND PUSH2 0x33E JUMPI PUSH1 0x0 DUP1 REVERT JUMPDEST CALLER PUSH1 0x0 DUP2 DUP2 MSTORE PUSH1 0x1 PUSH1 0x20 MSTORE PUSH1 0x40 SWAP1 KECCAK256 SLOAD PUSH1 0xFF AND ISZERO PUSH2 0x35B JUMPI PUSH1 0x0 DUP1 REVERT JUMPDEST PUSH1 0x1 PUSH1 0x18 PUSH1 0x3C DUP1 PUSH1 0x7 SLOAD TIMESTAMP PUSH2 0x370 SWAP2 SWAP1 PUSH2 0x8D9 JUMP JUMPDEST PUSH2 0x37A SWAP2 SWAP1 PUSH2 0x8F0 JUMP JUMPDEST PUSH2 0x384 SWAP2 SWAP1 PUSH2 0x8F0 JUMP JUMPDEST PUSH2 0x38E SWAP2 SWAP1 PUSH2 0x8F0 JUMP JUMPDEST GT ISZERO PUSH2 0x399 JUMPI PUSH1 0x0 DUP1 REVERT JUMPDEST PUSH1 0x1 DUP1 PUSH1 0x8 SLOAD PUSH1 0xFF AND PUSH1 0x3 DUP2 GT ISZERO PUSH2 0x3B3 JUMPI PUSH2 0x3B3 PUSH2 0x83C JUMP JUMPDEST EQ PUSH2 0x3BD JUMPI PUSH1 0x0 DUP1 REVERT JUMPDEST CALLER PUSH1 0x0 SWAP1 DUP2 MSTORE PUSH1 0x1 PUSH1 0x20 DUP2 SWAP1 MSTORE PUSH1 0x40 DUP3 KECCAK256 DUP1 SLOAD PUSH1 0xFF NOT AND DUP3 OR SWAP1 SSTORE PUSH1 0x6 DUP1 SLOAD SWAP2 SWAP3 SWAP1 SWAP2 PUSH2 0x3EB SWAP1 DUP5 SWAP1 PUSH2 0x912 JUMP JUMPDEST SWAP1 SWAP2 SSTORE POP POP PUSH1 0x6 SLOAD PUSH1 0x40 MLOAD SWAP1 DUP2 MSTORE PUSH32 0x77B92C0722E5BBE8D1413B7FBEC6093BC4DC966A65832498DC8C2C67D9A937CC SWAP1 PUSH1 0x20 ADD PUSH1 0x40 MLOAD DUP1 SWAP2 SUB SWAP1 LOG1 PUSH1 0x5 SLOAD PUSH1 0x6 SLOAD LT PUSH2 0x51B JUMPI PUSH1 0x8 DUP1 SLOAD PUSH1 0xFF NOT AND PUSH1 0x2 OR SWAP1 SSTORE PUSH1 0x3 SLOAD PUSH1 0x40 MLOAD PUSH1 0x0 SWAP2 PUSH1 0x1 PUSH1 0x1 PUSH1 0xA0 SHL SUB AND SWAP1 SELFBALANCE SWAP1 DUP4 DUP2 DUP2 DUP2 DUP6 DUP8 GAS CALL SWAP3 POP POP POP RETURNDATASIZE DUP1 PUSH1 0x0 DUP2 EQ PUSH2 0x48B JUMPI PUSH1 0x40 MLOAD SWAP2 POP PUSH1 0x1F NOT PUSH1 0x3F RETURNDATASIZE ADD AND DUP3 ADD PUSH1 0x40 MSTORE RETURNDATASIZE DUP3 MSTORE RETURNDATASIZE PUSH1 0x0 PUSH1 0x20 DUP5 ADD RETURNDATACOPY PUSH2 0x490 JUMP JUMPDEST PUSH1 0x60 SWAP2 POP JUMPDEST POP POP SWAP1 POP DUP1 PUSH2 0x4E6 JUMPI PUSH1 0x40 MLOAD PUSH3 0x461BCD PUSH1 0xE5 SHL DUP2 MSTORE PUSH1 0x20 PUSH1 0x4 DUP3 ADD DUP2 SWAP1 MSTORE PUSH1 0x24 DUP3 ADD MSTORE PUSH32 0x4661696C656420746F2073656E642066756E647320746F206469737075746572 PUSH1 0x44 DUP3 ADD MSTORE PUSH1 0x64 ADD JUMPDEST PUSH1 0x40 MLOAD DUP1 SWAP2 SUB SWAP1 REVERT JUMPDEST PUSH1 0x40 MLOAD TIMESTAMP DUP2 MSTORE PUSH32 0x33E13ECB54C3076D8E8BB8C2881800A4D972B792045FFAE98FDF46DF365FED75 SWAP1 PUSH1 0x20 ADD PUSH1 0x40 MLOAD DUP1 SWAP2 SUB SWAP1 LOG1 POP JUMPDEST POP POP POP JUMP JUMPDEST PUSH1 0x2 DUP2 DUP2 SLOAD DUP2 LT PUSH2 0x530 JUMPI PUSH1 0x0 DUP1 REVERT JUMPDEST PUSH1 0x0 SWAP2 DUP3 MSTORE PUSH1 0x20 SWAP1 SWAP2 KECCAK256 ADD SLOAD PUSH1 0x1 PUSH1 0x1 PUSH1 0xA0 SHL SUB AND SWAP1 POP DUP2 JUMP JUMPDEST PUSH1 0x0 PUSH1 0x1 PUSH1 0x18 PUSH1 0x3C DUP1 PUSH1 0x7 SLOAD TIMESTAMP PUSH2 0x561 SWAP2 SWAP1 PUSH2 0x8D9 JUMP JUMPDEST PUSH2 0x56B SWAP2 SWAP1 PUSH2 0x8F0 JUMP JUMPDEST PUSH2 0x575 SWAP2 SWAP1 PUSH2 0x8F0 JUMP JUMPDEST PUSH2 0x57F SWAP2 SWAP1 PUSH2 0x8F0 JUMP JUMPDEST GT ISZERO PUSH2 0x58A JUMPI PUSH1 0x0 DUP1 REVERT JUMPDEST PUSH1 0x3C PUSH1 0x7 SLOAD TIMESTAMP PUSH2 0x59A SWAP2 SWAP1 PUSH2 0x8D9 JUMP JUMPDEST PUSH2 0x5A4 SWAP2 SWAP1 PUSH2 0x8F0 JUMP JUMPDEST PUSH2 0x5B0 SWAP1 PUSH2 0x5A0 PUSH2 0x8D9 JUMP JUMPDEST SWAP1 POP SWAP1 JUMP JUMPDEST PUSH1 0x1 PUSH1 0x18 PUSH1 0x3C DUP1 PUSH1 0x7 SLOAD TIMESTAMP PUSH2 0x5CA SWAP2 SWAP1 PUSH2 0x8D9 JUMP JUMPDEST PUSH2 0x5D4 SWAP2 SWAP1 PUSH2 0x8F0 JUMP JUMPDEST PUSH2 0x5DE SWAP2 SWAP1 PUSH2 0x8F0 JUMP JUMPDEST PUSH2 0x5E8 SWAP2 SWAP1 PUSH2 0x8F0 JUMP JUMPDEST GT PUSH2 0x5F2 JUMPI PUSH1 0x0 DUP1 REVERT JUMPDEST PUSH1 0x5 SLOAD PUSH1 0x6 SLOAD LT ISZERO PUSH2 0x6B0 JUMPI PUSH1 0x8 DUP1 SLOAD PUSH1 0xFF NOT AND PUSH1 0x3 OR SWAP1 SSTORE PUSH1 0x4 SLOAD PUSH1 0x40 MLOAD PUSH1 0x0 SWAP2 PUSH1 0x1 PUSH1 0x1 PUSH1 0xA0 SHL SUB AND SWAP1 SELFBALANCE SWAP1 DUP4 DUP2 DUP2 DUP2 DUP6 DUP8 GAS CALL SWAP3 POP POP POP RETURNDATASIZE DUP1 PUSH1 0x0 DUP2 EQ PUSH2 0x658 JUMPI PUSH1 0x40 MLOAD SWAP2 POP PUSH1 0x1F NOT PUSH1 0x3F RETURNDATASIZE ADD AND DUP3 ADD PUSH1 0x40 MSTORE RETURNDATASIZE DUP3 MSTORE RETURNDATASIZE PUSH1 0x0 PUSH1 0x20 DUP5 ADD RETURNDATACOPY PUSH2 0x65D JUMP JUMPDEST PUSH1 0x60 SWAP2 POP JUMPDEST POP POP SWAP1 POP DUP1 PUSH2 0x6AE JUMPI PUSH1 0x40 MLOAD PUSH3 0x461BCD PUSH1 0xE5 SHL DUP2 MSTORE PUSH1 0x20 PUSH1 0x4 DUP3 ADD DUP2 SWAP1 MSTORE PUSH1 0x24 DUP3 ADD MSTORE PUSH32 0x4661696C656420746F2073656E642066756E647320746F206469737075746565 PUSH1 0x44 DUP3 ADD MSTORE PUSH1 0x64 ADD PUSH2 0x4DD JUMP JUMPDEST POP JUMPDEST PUSH1 0x5 SLOAD PUSH1 0x6 SLOAD LT PUSH2 0x76D JUMPI PUSH1 0x8 DUP1 SLOAD PUSH1 0xFF NOT AND PUSH1 0x2 OR SWAP1 SSTORE PUSH1 0x3 SLOAD PUSH1 0x40 MLOAD PUSH1 0x0 SWAP2 PUSH1 0x1 PUSH1 0x1 PUSH1 0xA0 SHL SUB AND SWAP1 SELFBALANCE SWAP1 DUP4 DUP2 DUP2 DUP2 DUP6 DUP8 GAS CALL SWAP3 POP POP POP RETURNDATASIZE DUP1 PUSH1 0x0 DUP2 EQ PUSH2 0x715 JUMPI PUSH1 0x40 MLOAD SWAP2 POP PUSH1 0x1F NOT PUSH1 0x3F RETURNDATASIZE ADD AND DUP3 ADD PUSH1 0x40 MSTORE RETURNDATASIZE DUP3 MSTORE RETURNDATASIZE PUSH1 0x0 PUSH1 0x20 DUP5 ADD RETURNDATACOPY PUSH2 0x71A JUMP JUMPDEST PUSH1 0x60 SWAP2 POP JUMPDEST POP POP SWAP1 POP DUP1 PUSH2 0x76B JUMPI PUSH1 0x40 MLOAD PUSH3 0x461BCD PUSH1 0xE5 SHL DUP2 MSTORE PUSH1 0x20 PUSH1 0x4 DUP3 ADD DUP2 SWAP1 MSTORE PUSH1 0x24 DUP3 ADD MSTORE PUSH32 0x4661696C656420746F2073656E642066756E647320746F206469737075746572 PUSH1 0x44 DUP3 ADD MSTORE PUSH1 0x64 ADD PUSH2 0x4DD JUMP JUMPDEST POP JUMPDEST JUMP JUMPDEST PUSH1 0x0 DUP1 PUSH1 0x8 SLOAD PUSH1 0xFF AND PUSH1 0x3 DUP2 GT ISZERO PUSH2 0x789 JUMPI PUSH2 0x789 PUSH2 0x83C JUMP JUMPDEST EQ PUSH2 0x793 JUMPI PUSH1 0x0 DUP1 REVERT JUMPDEST PUSH1 0x8 DUP1 SLOAD PUSH1 0xFF NOT AND PUSH1 0x1 OR SWAP1 SSTORE PUSH1 0x40 MLOAD PUSH1 0x0 SWAP1 ADDRESS SWAP1 CALLVALUE SWAP1 DUP4 DUP2 DUP2 DUP2 DUP6 DUP8 GAS CALL SWAP3 POP POP POP RETURNDATASIZE DUP1 PUSH1 0x0 DUP2 EQ PUSH2 0x7E2 JUMPI PUSH1 0x40 MLOAD SWAP2 POP PUSH1 0x1F NOT PUSH1 0x3F RETURNDATASIZE ADD AND DUP3 ADD PUSH1 0x40 MSTORE RETURNDATASIZE DUP3 MSTORE RETURNDATASIZE PUSH1 0x0 PUSH1 0x20 DUP5 ADD RETURNDATACOPY PUSH2 0x7E7 JUMP JUMPDEST PUSH1 0x60 SWAP2 POP JUMPDEST POP POP SWAP1 POP DUP1 PUSH2 0x838 JUMPI PUSH1 0x40 MLOAD PUSH3 0x461BCD PUSH1 0xE5 SHL DUP2 MSTORE PUSH1 0x20 PUSH1 0x4 DUP3 ADD DUP2 SWAP1 MSTORE PUSH1 0x24 DUP3 ADD MSTORE PUSH32 0x4661696C656420746F2073656E642066756E647320746F206D756C7469736967 PUSH1 0x44 DUP3 ADD MSTORE PUSH1 0x64 ADD PUSH2 0x4DD JUMP JUMPDEST POP POP JUMP JUMPDEST PUSH4 0x4E487B71 PUSH1 0xE0 SHL PUSH1 0x0 MSTORE PUSH1 0x21 PUSH1 0x4 MSTORE PUSH1 0x24 PUSH1 0x0 REVERT JUMPDEST PUSH1 0x20 DUP2 ADD PUSH1 0x4 DUP4 LT PUSH2 0x874 JUMPI PUSH4 0x4E487B71 PUSH1 0xE0 SHL PUSH1 0x0 MSTORE PUSH1 0x21 PUSH1 0x4 MSTORE PUSH1 0x24 PUSH1 0x0 REVERT JUMPDEST SWAP2 SWAP1 MSTORE SWAP1 JUMP JUMPDEST PUSH1 0x0 PUSH1 0x20 DUP3 DUP5 SUB SLT ISZERO PUSH2 0x88C JUMPI PUSH1 0x0 DUP1 REVERT JUMPDEST DUP2 CALLDATALOAD PUSH1 0x1 PUSH1 0x1 PUSH1 0xA0 SHL SUB DUP2 AND DUP2 EQ PUSH2 0x8A3 JUMPI PUSH1 0x0 DUP1 REVERT JUMPDEST SWAP4 SWAP3 POP POP POP JUMP JUMPDEST PUSH1 0x0 PUSH1 0x20 DUP3 DUP5 SUB SLT ISZERO PUSH2 0x8BC JUMPI PUSH1 0x0 DUP1 REVERT JUMPDEST POP CALLDATALOAD SWAP2 SWAP1 POP JUMP JUMPDEST PUSH4 0x4E487B71 PUSH1 0xE0 SHL PUSH1 0x0 MSTORE PUSH1 0x11 PUSH1 0x4 MSTORE PUSH1 0x24 PUSH1 0x0 REVERT JUMPDEST PUSH1 0x0 DUP3 DUP3 LT ISZERO PUSH2 0x8EB JUMPI PUSH2 0x8EB PUSH2 0x8C3 JUMP JUMPDEST POP SUB SWAP1 JUMP JUMPDEST PUSH1 0x0 DUP3 PUSH2 0x90D JUMPI PUSH4 0x4E487B71 PUSH1 0xE0 SHL PUSH1 0x0 MSTORE PUSH1 0x12 PUSH1 0x4 MSTORE PUSH1 0x24 PUSH1 0x0 REVERT JUMPDEST POP DIV SWAP1 JUMP JUMPDEST PUSH1 0x0 DUP3 NOT DUP3 GT ISZERO PUSH2 0x925 JUMPI PUSH2 0x925 PUSH2 0x8C3 JUMP JUMPDEST POP ADD SWAP1 JUMP INVALID LOG2 PUSH5 0x6970667358 0x22 SLT KECCAK256 0xC4 GT PUSH9 0xEE950F0873FCCDD067 STOP SWAP8 PUSH12 0x60952ECBD0FB976B1490EF4A DIFFICULTY SELFDESTRUCT MULMOD PUSH31 0x4864736F6C634300080D003300000000000000000000000000000000000000 "
        },
        "methodIdentifiers": {
          "ApprovalCount()": "6eec3515",
          "ApproveDispute()": "43efa9ec",
          "arbitrators(uint256)": "a6430cc0",
          "depositFunds()": "e2c41dbc",
          "disputee()": "fc2ac367",
          "disputer()": "6ac56103",
          "getBalance()": "12065fe0",
          "getConfirmationCount()": "91f78e4c",
          "getResult()": "de292789",
          "getState()": "1865c57d",
          "getTimeLeft()": "c7e284b8",
          "isApprover(address)": "6d218e48",
          "isArbitrator(address)": "9f6bd2a9",
          "required()": "dc8452cd",
          "state()": "c19d93fb",
          "time_created()": "639d7a07"
        }
      }
    }
  }
}