{
  "_format": "hh-sol-artifact-1",
  "contractName": "EscrowContract",
  "sourceName": "contracts/EscrowContract.sol",
  "abi": [
    {
      "inputs": [
        {
          "internalType": "address payable",
          "name": "_buyer",
          "type": "address"
        },
        {
          "internalType": "address payable",
          "name": "_sender",
          "type": "address"
        },
        {
          "internalType": "uint256",
          "name": "_value",
          "type": "uint256"
        },
        {
          "internalType": "string[]",
          "name": "_terms",
          "type": "string[]"
        }
      ],
      "stateMutability": "payable",
      "type": "constructor"
    },
    {
      "stateMutability": "payable",
      "type": "fallback"
    },
    {
      "inputs": [],
      "name": "approveContract",
      "outputs": [],
      "stateMutability": "nonpayable",
      "type": "function"
    },
    {
      "inputs": [],
      "name": "buyer",
      "outputs": [
        {
          "internalType": "address payable",
          "name": "",
          "type": "address"
        }
      ],
      "stateMutability": "view",
      "type": "function"
    },
    {
      "inputs": [],
      "name": "cancelPayment",
      "outputs": [],
      "stateMutability": "nonpayable",
      "type": "function"
    },
    {
      "inputs": [],
      "name": "completeTransaction",
      "outputs": [],
      "stateMutability": "nonpayable",
      "type": "function"
    },
    {
      "inputs": [],
      "name": "confirmDelivery",
      "outputs": [],
      "stateMutability": "nonpayable",
      "type": "function"
    },
    {
      "inputs": [],
      "name": "getBalance",
      "outputs": [
        {
          "internalType": "uint256",
          "name": "",
          "type": "uint256"
        }
      ],
      "stateMutability": "view",
      "type": "function"
    },
    {
      "inputs": [],
      "name": "getState",
      "outputs": [
        {
          "internalType": "enum EscrowContract.State",
          "name": "",
          "type": "uint8"
        }
      ],
      "stateMutability": "view",
      "type": "function"
    },
    {
      "inputs": [],
      "name": "launchDispute",
      "outputs": [],
      "stateMutability": "nonpayable",
      "type": "function"
    },
    {
      "inputs": [],
      "name": "makePayment",
      "outputs": [],
      "stateMutability": "payable",
      "type": "function"
    },
    {
      "inputs": [],
      "name": "returnPayment",
      "outputs": [],
      "stateMutability": "nonpayable",
      "type": "function"
    },
    {
      "inputs": [],
      "name": "seller",
      "outputs": [
        {
          "internalType": "address payable",
          "name": "",
          "type": "address"
        }
      ],
      "stateMutability": "view",
      "type": "function"
    },
    {
      "inputs": [],
      "name": "state",
      "outputs": [
        {
          "internalType": "enum EscrowContract.State",
          "name": "",
          "type": "uint8"
        }
      ],
      "stateMutability": "view",
      "type": "function"
    },
    {
      "inputs": [
        {
          "internalType": "uint256",
          "name": "",
          "type": "uint256"
        }
      ],
      "name": "terms",
      "outputs": [
        {
          "internalType": "string",
          "name": "",
          "type": "string"
        }
      ],
      "stateMutability": "view",
      "type": "function"
    },
    {
      "inputs": [],
      "name": "time_created",
      "outputs": [
        {
          "internalType": "uint256",
          "name": "",
          "type": "uint256"
        }
      ],
      "stateMutability": "view",
      "type": "function"
    },
    {
      "inputs": [],
      "name": "value",
      "outputs": [
        {
          "internalType": "uint256",
          "name": "",
          "type": "uint256"
        }
      ],
      "stateMutability": "view",
      "type": "function"
    },
    {
      "stateMutability": "payable",
      "type": "receive"
    }
  ],
  "bytecode": "0x608060405260405162000d5438038062000d54833981016040819052620000269162000258565b600080546001600160a01b038087166001600160a01b0319928316179092556001805492861692909116919091179055600282905580516200007090600390602084019062000089565b50506005805460ff19169055505042600455506200040e565b828054828255906000526020600020908101928215620000db579160200282015b82811115620000db5782518051620000ca918491602090910190620000ed565b5091602001919060010190620000aa565b50620000e992915062000178565b5090565b828054620000fb90620003d2565b90600052602060002090601f0160209004810192826200011f57600085556200016a565b82601f106200013a57805160ff19168380011785556200016a565b828001600101855582156200016a579182015b828111156200016a5782518255916020019190600101906200014d565b50620000e992915062000199565b80821115620000e95760006200018f8282620001b0565b5060010162000178565b5b80821115620000e957600081556001016200019a565b508054620001be90620003d2565b6000825580601f10620001cf575050565b601f016020900490600052602060002090810190620001ef919062000199565b50565b80516001600160a01b03811681146200020a57600080fd5b919050565b634e487b7160e01b600052604160045260246000fd5b604051601f8201601f191681016001600160401b03811182821017156200025057620002506200020f565b604052919050565b600080600080608085870312156200026f57600080fd5b6200027a85620001f2565b935060206200028b818701620001f2565b6040870151606088015191955093506001600160401b0380821115620002b057600080fd5b818801915088601f830112620002c557600080fd5b815181811115620002da57620002da6200020f565b8060051b620002eb85820162000225565b918252838101850191858101908c8411156200030657600080fd5b86860192505b83831015620003c157825185811115620003265760008081fd5b8601603f81018e13620003395760008081fd5b87810151868111156200035057620003506200020f565b62000364601f8201601f19168a0162000225565b8181528f60408385010111156200037b5760008081fd5b60005b828110156200039c57838101604001518282018c01528a016200037e565b82811115620003ae5760008b84840101525b508452505091860191908601906200030c565b999c989b5096995050505050505050565b600181811c90821680620003e757607f821691505b6020821081036200040857634e487b7160e01b600052602260045260246000fd5b50919050565b610936806200041e6000396000f3fe6080604052600436106100e05760003560e01c8063639d7a0711610084578063c0aa0e8a11610056578063c0aa0e8a14610219578063c19d93fb14610246578063d8d7970014610260578063e8baa1f01461026857005b8063639d7a07146101b95780637150d8ae146101cf5780639a40c833146101ef578063b3ae1d2c1461020457005b80633dcfe411116100bd5780633dcfe411146101645780633fa4f2451461017957806343d00d041461018f5780635e10177b146101a457005b806308551a53146100e957806312065fe0146101265780631865c57d1461014357005b366100e757005b005b3480156100f557600080fd5b50600154610109906001600160a01b031681565b6040516001600160a01b0390911681526020015b60405180910390f35b34801561013257600080fd5b50475b60405190815260200161011d565b34801561014f57600080fd5b5060055460ff165b60405161011d91906107e9565b34801561017057600080fd5b506100e761027d565b34801561018557600080fd5b5061013560025481565b34801561019b57600080fd5b506100e7610370565b3480156101b057600080fd5b506100e76103c2565b3480156101c557600080fd5b5061013560045481565b3480156101db57600080fd5b50600054610109906001600160a01b031681565b3480156101fb57600080fd5b506100e76104ad565b34801561021057600080fd5b506100e76104e5565b34801561022557600080fd5b50610239610234366004610811565b61055d565b60405161011d919061082a565b34801561025257600080fd5b506005546101579060ff1681565b6100e7610609565b34801561027457600080fd5b506100e7610786565b6001546001600160a01b0316331461029457600080fd5b6002806005805460ff16908111156102ae576102ae6107d3565b146102b857600080fd5b6005805460ff191681179055600080546040516001600160a01b039091169047908381818185875af1925050503d8060008114610311576040519150601f19603f3d011682016040523d82523d6000602084013e610316565b606091505b505090508061036c5760405162461bcd60e51b815260206004820152601f60248201527f4661696c656420746f2072657475726e2066756e647320746f2062757965720060448201526064015b60405180910390fd5b5050565b6001546001600160a01b0316331461038757600080fd5b6000806005805460ff16908111156103a1576103a16107d3565b146103ab57600080fd5b600580546001919060ff191682805b021790555050565b6000546001600160a01b031633146103d957600080fd5b6002806005805460ff16908111156103f3576103f36107d3565b146103fd57600080fd5b6005805460ff191660031790556001546040516000916001600160a01b03169047908381818185875af1925050503d8060008114610457576040519150601f19603f3d011682016040523d82523d6000602084013e61045c565b606091505b505090508061036c5760405162461bcd60e51b815260206004820152601e60248201527f4661696c656420746f2073656e642066756e647320746f2073656c6c657200006044820152606401610363565b6002806005805460ff16908111156104c7576104c76107d3565b146104d157600080fd5b600580546004919060ff19166001836103ba565b6001546001600160a01b031633146104fc57600080fd5b6002806005805460ff1690811115610516576105166107d3565b1461052057600080fd5b60016018603c8060045442610535919061087f565b61053f91906108a4565b61054991906108a4565b61055391906108a4565b116103fd57600080fd5b6003818154811061056d57600080fd5b906000526020600020016000915090508054610588906108c6565b80601f01602080910402602001604051908101604052809291908181526020018280546105b4906108c6565b80156106015780601f106105d657610100808354040283529160200191610601565b820191906000526020600020905b8154815290600101906020018083116105e457829003601f168201915b505050505081565b6000546001600160a01b0316331461062057600080fd5b6001806005805460ff169081111561063a5761063a6107d3565b1461064457600080fd5b60025434146106bb5760405162461bcd60e51b815260206004820152603d60248201527f416d6f756e742073656e74206d7573742062652073616d65206173207370656360448201527f696669656420696e2074686520457363726f7720436f6e7472616374210000006064820152608401610363565b6005805460ff19166002179055604051600090309034908381818185875af1925050503d806000811461070a576040519150601f19603f3d011682016040523d82523d6000602084013e61070f565b606091505b505090508061036c5760405162461bcd60e51b815260206004820152602660248201527f4661696c656420746f2073656e642066756e647320746f20657363726f77636f60448201527f6e747261637400000000000000000000000000000000000000000000000000006064820152608401610363565b6000546001600160a01b0316331461079d57600080fd5b6001806005805460ff16908111156107b7576107b76107d3565b146107c157600080fd5b60058054819060ff19166001826103ba565b634e487b7160e01b600052602160045260246000fd5b602081016006831061080b57634e487b7160e01b600052602160045260246000fd5b91905290565b60006020828403121561082357600080fd5b5035919050565b600060208083528351808285015260005b818110156108575785810183015185820160400152820161083b565b81811115610869576000604083870101525b50601f01601f1916929092016040019392505050565b60008282101561089f57634e487b7160e01b600052601160045260246000fd5b500390565b6000826108c157634e487b7160e01b600052601260045260246000fd5b500490565b600181811c908216806108da57607f821691505b6020821081036108fa57634e487b7160e01b600052602260045260246000fd5b5091905056fea264697066735822122098cb5c3c223682e8fbdf243860fdfb160fbe3bdfc5b6534bf7c1e9a7e6d9de3364736f6c634300080d0033",
  "linkReferences": {},
  "deployedLinkReferences": {}
}