{
  "_format": "hh-sol-artifact-1",
  "contractName": "MultiSigWallet",
  "sourceName": "contracts/MultiSigContract.sol",
  "abi": [
    {
      "inputs": [
        {
          "internalType": "address payable",
          "name": "_disputer",
          "type": "address"
        },
        {
          "internalType": "address payable",
          "name": "_disputee",
          "type": "address"
        },
        {
          "internalType": "address[]",
          "name": "_arbitrators",
          "type": "address[]"
        },
        {
          "internalType": "uint256",
          "name": "_required",
          "type": "uint256"
        }
      ],
      "stateMutability": "payable",
      "type": "constructor"
    },
    {
      "anonymous": false,
      "inputs": [
        {
          "indexed": false,
          "internalType": "uint256",
          "name": "ApprovalCount",
          "type": "uint256"
        }
      ],
      "name": "Approve",
      "type": "event"
    },
    {
      "anonymous": false,
      "inputs": [
        {
          "indexed": false,
          "internalType": "address",
          "name": "sender",
          "type": "address"
        },
        {
          "indexed": false,
          "internalType": "uint256",
          "name": "value",
          "type": "uint256"
        }
      ],
      "name": "Deposit",
      "type": "event"
    },
    {
      "anonymous": false,
      "inputs": [
        {
          "indexed": false,
          "internalType": "uint256",
          "name": "time",
          "type": "uint256"
        }
      ],
      "name": "Execution",
      "type": "event"
    },
    {
      "stateMutability": "payable",
      "type": "fallback"
    },
    {
      "inputs": [],
      "name": "ApprovalCount",
      "outputs": [
        {
          "internalType": "uint256",
          "name": "",
          "type": "uint256"
        }
      ],
      "stateMutability": "view",
      "type": "function"
    },
    {
      "inputs": [],
      "name": "ApproveDispute",
      "outputs": [],
      "stateMutability": "nonpayable",
      "type": "function"
    },
    {
      "inputs": [
        {
          "internalType": "uint256",
          "name": "",
          "type": "uint256"
        }
      ],
      "name": "arbitrators",
      "outputs": [
        {
          "internalType": "address",
          "name": "",
          "type": "address"
        }
      ],
      "stateMutability": "view",
      "type": "function"
    },
    {
      "inputs": [],
      "name": "depositFunds",
      "outputs": [],
      "stateMutability": "payable",
      "type": "function"
    },
    {
      "inputs": [],
      "name": "disputee",
      "outputs": [
        {
          "internalType": "address payable",
          "name": "",
          "type": "address"
        }
      ],
      "stateMutability": "view",
      "type": "function"
    },
    {
      "inputs": [],
      "name": "disputer",
      "outputs": [
        {
          "internalType": "address payable",
          "name": "",
          "type": "address"
        }
      ],
      "stateMutability": "view",
      "type": "function"
    },
    {
      "inputs": [],
      "name": "getBalance",
      "outputs": [
        {
          "internalType": "uint256",
          "name": "",
          "type": "uint256"
        }
      ],
      "stateMutability": "view",
      "type": "function"
    },
    {
      "inputs": [],
      "name": "getConfirmationCount",
      "outputs": [
        {
          "internalType": "uint256",
          "name": "",
          "type": "uint256"
        }
      ],
      "stateMutability": "view",
      "type": "function"
    },
    {
      "inputs": [],
      "name": "getResult",
      "outputs": [],
      "stateMutability": "nonpayable",
      "type": "function"
    },
    {
      "inputs": [],
      "name": "getState",
      "outputs": [
        {
          "internalType": "enum MultiSigWallet.State",
          "name": "",
          "type": "uint8"
        }
      ],
      "stateMutability": "view",
      "type": "function"
    },
    {
      "inputs": [],
      "name": "getTimeLeft",
      "outputs": [
        {
          "internalType": "uint256",
          "name": "",
          "type": "uint256"
        }
      ],
      "stateMutability": "view",
      "type": "function"
    },
    {
      "inputs": [
        {
          "internalType": "address",
          "name": "",
          "type": "address"
        }
      ],
      "name": "isApprover",
      "outputs": [
        {
          "internalType": "bool",
          "name": "",
          "type": "bool"
        }
      ],
      "stateMutability": "view",
      "type": "function"
    },
    {
      "inputs": [
        {
          "internalType": "address",
          "name": "",
          "type": "address"
        }
      ],
      "name": "isArbitrator",
      "outputs": [
        {
          "internalType": "bool",
          "name": "",
          "type": "bool"
        }
      ],
      "stateMutability": "view",
      "type": "function"
    },
    {
      "inputs": [],
      "name": "required",
      "outputs": [
        {
          "internalType": "uint256",
          "name": "",
          "type": "uint256"
        }
      ],
      "stateMutability": "view",
      "type": "function"
    },
    {
      "inputs": [],
      "name": "state",
      "outputs": [
        {
          "internalType": "enum MultiSigWallet.State",
          "name": "",
          "type": "uint8"
        }
      ],
      "stateMutability": "view",
      "type": "function"
    },
    {
      "inputs": [],
      "name": "time_created",
      "outputs": [
        {
          "internalType": "uint256",
          "name": "",
          "type": "uint256"
        }
      ],
      "stateMutability": "view",
      "type": "function"
    },
    {
      "stateMutability": "payable",
      "type": "receive"
    }
  ],
  "bytecode": "0x608060405260405162000ccf38038062000ccf83398101604081905262000026916200021b565b8015801590620000365750815115155b6200004057600080fd5b60005b8251811015620000f85760008084838151811062000065576200006562000321565b6020908102919091018101516001600160a01b031682528101919091526040016000205460ff16156200009757600080fd5b6001600080858481518110620000b157620000b162000321565b6020908102919091018101516001600160a01b03168252810191909152604001600020805460ff191691151591909117905580620000ef8162000337565b91505062000043565b50600380546001600160a01b038087166001600160a01b031992831617909255600480549286169290911691909117905581516200013e90600290602085019062000159565b5060055550506008805460ff1916905550426007556200035f565b828054828255906000526020600020908101928215620001b1579160200282015b82811115620001b157825182546001600160a01b0319166001600160a01b039091161782556020909201916001909101906200017a565b50620001bf929150620001c3565b5090565b5b80821115620001bf5760008155600101620001c4565b6001600160a01b0381168114620001f057600080fd5b50565b634e487b7160e01b600052604160045260246000fd5b80516200021681620001da565b919050565b600080600080608085870312156200023257600080fd5b84516200023f81620001da565b809450506020808601516200025481620001da565b60408701519094506001600160401b03808211156200027257600080fd5b818801915088601f8301126200028757600080fd5b8151818111156200029c576200029c620001f3565b8060051b604051601f19603f83011681018181108582111715620002c457620002c4620001f3565b60405291825284820192508381018501918b831115620002e357600080fd5b938501935b828510156200030c57620002fc8562000209565b84529385019392850192620002e8565b60609a909a0151989b979a5050505050505050565b634e487b7160e01b600052603260045260246000fd5b6000600182016200035857634e487b7160e01b600052601160045260246000fd5b5060010190565b610960806200036f6000396000f3fe6080604052600436106100eb5760003560e01c80639f6bd2a911610084578063dc8452cd11610056578063dc8452cd1461028a578063de292789146102a0578063e2c41dbc146102b5578063fc2ac367146102bd57005b80639f6bd2a91461020b578063a6430cc01461023b578063c19d93fb1461025b578063c7e284b81461027557005b80636ac56103116100bd5780636ac56103146101685780636d218e48146101a05780636eec3515146101e057806391f78e4c146101f657005b806312065fe0146100f45780631865c57d1461011c57806343efa9ec1461013d578063639d7a071461015257005b366100f257005b005b34801561010057600080fd5b506101096102dd565b6040519081526020015b60405180910390f35b34801561012857600080fd5b5060085460ff165b6040516101139190610852565b34801561014957600080fd5b506100f2610322565b34801561015e57600080fd5b5061010960075481565b34801561017457600080fd5b50600354610188906001600160a01b031681565b6040516001600160a01b039091168152602001610113565b3480156101ac57600080fd5b506101d06101bb36600461087a565b60016020526000908152604090205460ff1681565b6040519015158152602001610113565b3480156101ec57600080fd5b5061010960065481565b34801561020257600080fd5b50600654610109565b34801561021757600080fd5b506101d061022636600461087a565b60006020819052908152604090205460ff1681565b34801561024757600080fd5b506101886102563660046108aa565b610520565b34801561026757600080fd5b506008546101309060ff1681565b34801561028157600080fd5b5061010961054a565b34801561029657600080fd5b5061010960055481565b3480156102ac57600080fd5b506100f26105b5565b6100f261076f565b3480156102c957600080fd5b50600454610188906001600160a01b031681565b600060016018603c80600754426102f491906108d9565b6102fe91906108f0565b61030891906108f0565b61031291906108f0565b111561031d57600080fd5b504790565b3360008181526020819052604090205460ff1661033e57600080fd5b3360008181526001602052604090205460ff161561035b57600080fd5b60016018603c806007544261037091906108d9565b61037a91906108f0565b61038491906108f0565b61038e91906108f0565b111561039957600080fd5b60018060085460ff1660038111156103b3576103b361083c565b146103bd57600080fd5b3360009081526001602081905260408220805460ff19168217905560068054919290916103eb908490610912565b90915550506006546040519081527f77b92c0722e5bbe8d1413b7fbec6093bc4dc966a65832498dc8c2c67d9a937cc9060200160405180910390a16005546006541061051b576008805460ff191660021790556003546040516000916001600160a01b03169047908381818185875af1925050503d806000811461048b576040519150601f19603f3d011682016040523d82523d6000602084013e610490565b606091505b50509050806104e65760405162461bcd60e51b815260206004820181905260248201527f4661696c656420746f2073656e642066756e647320746f20646973707574657260448201526064015b60405180910390fd5b6040514281527f33e13ecb54c3076d8e8bb8c2881800a4d972b792045ffae98fdf46df365fed759060200160405180910390a1505b505050565b6002818154811061053057600080fd5b6000918252602090912001546001600160a01b0316905081565b600060016018603c806007544261056191906108d9565b61056b91906108f0565b61057591906108f0565b61057f91906108f0565b111561058a57600080fd5b603c6007544261059a91906108d9565b6105a491906108f0565b6105b0906105a06108d9565b905090565b60016018603c80600754426105ca91906108d9565b6105d491906108f0565b6105de91906108f0565b6105e891906108f0565b116105f257600080fd5b60055460065410156106b0576008805460ff191660031790556004546040516000916001600160a01b03169047908381818185875af1925050503d8060008114610658576040519150601f19603f3d011682016040523d82523d6000602084013e61065d565b606091505b50509050806106ae5760405162461bcd60e51b815260206004820181905260248201527f4661696c656420746f2073656e642066756e647320746f20646973707574656560448201526064016104dd565b505b6005546006541061076d576008805460ff191660021790556003546040516000916001600160a01b03169047908381818185875af1925050503d8060008114610715576040519150601f19603f3d011682016040523d82523d6000602084013e61071a565b606091505b505090508061076b5760405162461bcd60e51b815260206004820181905260248201527f4661696c656420746f2073656e642066756e647320746f20646973707574657260448201526064016104dd565b505b565b60008060085460ff1660038111156107895761078961083c565b1461079357600080fd5b6008805460ff19166001179055604051600090309034908381818185875af1925050503d80600081146107e2576040519150601f19603f3d011682016040523d82523d6000602084013e6107e7565b606091505b50509050806108385760405162461bcd60e51b815260206004820181905260248201527f4661696c656420746f2073656e642066756e647320746f206d756c746973696760448201526064016104dd565b5050565b634e487b7160e01b600052602160045260246000fd5b602081016004831061087457634e487b7160e01b600052602160045260246000fd5b91905290565b60006020828403121561088c57600080fd5b81356001600160a01b03811681146108a357600080fd5b9392505050565b6000602082840312156108bc57600080fd5b5035919050565b634e487b7160e01b600052601160045260246000fd5b6000828210156108eb576108eb6108c3565b500390565b60008261090d57634e487b7160e01b600052601260045260246000fd5b500490565b60008219821115610925576109256108c3565b50019056fea2646970667358221220c41168ee950f0873fccdd06700976b60952ecbd0fb976b1490ef4a44ff097e4864736f6c634300080d0033",
  "linkReferences": {},
  "deployedLinkReferences": {}
}