{
  "_format": "hh-sol-artifact-1",
  "contractName": "Staker",
  "sourceName": "contracts/staker.sol",
  "abi": [
    {
      "anonymous": false,
      "inputs": [
        {
          "indexed": true,
          "internalType": "address",
          "name": "sender",
          "type": "address"
        },
        {
          "indexed": false,
          "internalType": "uint256",
          "name": "amount",
          "type": "uint256"
        }
      ],
      "name": "Stake",
      "type": "event"
    },
    {
      "inputs": [
        {
          "internalType": "address",
          "name": "",
          "type": "address"
        }
      ],
      "name": "balances",
      "outputs": [
        {
          "internalType": "uint256",
          "name": "",
          "type": "uint256"
        }
      ],
      "stateMutability": "view",
      "type": "function"
    },
    {
      "inputs": [],
      "name": "getStakers",
      "outputs": [
        {
          "internalType": "address[]",
          "name": "",
          "type": "address[]"
        }
      ],
      "stateMutability": "view",
      "type": "function"
    },
    {
      "inputs": [],
      "name": "stake",
      "outputs": [],
      "stateMutability": "payable",
      "type": "function"
    },
    {
      "inputs": [
        {
          "internalType": "uint256",
          "name": "",
          "type": "uint256"
        }
      ],
      "name": "stakers",
      "outputs": [
        {
          "internalType": "address",
          "name": "",
          "type": "address"
        }
      ],
      "stateMutability": "view",
      "type": "function"
    },
    {
      "inputs": [],
      "name": "withdraw",
      "outputs": [],
      "stateMutability": "nonpayable",
      "type": "function"
    }
  ],
  "bytecode": "0x608060405234801561001057600080fd5b50610b49806100206000396000f3fe60806040526004361061004a5760003560e01c806327e235e31461004f5780633a4b66f11461008c5780633ccfd60b1461009657806343352d61146100ad578063fd5e6dd1146100d8575b600080fd5b34801561005b57600080fd5b5061007660048036038101906100719190610675565b610115565b60405161008391906106bb565b60405180910390f35b61009461012d565b005b3480156100a257600080fd5b506100ab610235565b005b3480156100b957600080fd5b506100c2610545565b6040516100cf9190610794565b60405180910390f35b3480156100e457600080fd5b506100ff60048036038101906100fa91906107e2565b6105d3565b60405161010c919061081e565b60405180910390f35b60006020528060005260406000206000915090505481565b346000803373ffffffffffffffffffffffffffffffffffffffff1673ffffffffffffffffffffffffffffffffffffffff168152602001908152602001600020600082825461017b9190610868565b925050819055506001339080600181540180825580915050600190039060005260206000200160009091909190916101000a81548173ffffffffffffffffffffffffffffffffffffffff021916908373ffffffffffffffffffffffffffffffffffffffff1602179055503373ffffffffffffffffffffffffffffffffffffffff167febedb8b3c678666e7f36970bc8f57abf6d8fa2e828c0da91ea5b75bf68ed101a3460405161022b91906106bb565b60405180910390a2565b60008060003373ffffffffffffffffffffffffffffffffffffffff1673ffffffffffffffffffffffffffffffffffffffff168152602001908152602001600020549050600081116102bb576040517f08c379a00000000000000000000000000000000000000000000000000000000081526004016102b290610941565b60405180910390fd5b60008060003373ffffffffffffffffffffffffffffffffffffffff1673ffffffffffffffffffffffffffffffffffffffff1681526020019081526020016000208190555060005b600180805490506103139190610961565b81101561044d573373ffffffffffffffffffffffffffffffffffffffff166001828154811061034557610344610995565b5b9060005260206000200160009054906101000a900473ffffffffffffffffffffffffffffffffffffffff1673ffffffffffffffffffffffffffffffffffffffff160361043a57600180808054905061039d9190610961565b815481106103ae576103ad610995565b5b9060005260206000200160009054906101000a900473ffffffffffffffffffffffffffffffffffffffff16600182815481106103ed576103ec610995565b5b9060005260206000200160006101000a81548173ffffffffffffffffffffffffffffffffffffffff021916908373ffffffffffffffffffffffffffffffffffffffff16021790555061044d565b8080610445906109c4565b915050610302565b5060018054806104605761045f610a0c565b5b6001900381819060005260206000200160006101000a81549073ffffffffffffffffffffffffffffffffffffffff0219169055905560003373ffffffffffffffffffffffffffffffffffffffff16826040516104bb90610a6c565b60006040518083038185875af1925050503d80600081146104f8576040519150601f19603f3d011682016040523d82523d6000602084013e6104fd565b606091505b5050905080610541576040517f08c379a000000000000000000000000000000000000000000000000000000000815260040161053890610af3565b60405180910390fd5b5050565b606060018054806020026020016040519081016040528092919081815260200182805480156105c957602002820191906000526020600020905b8160009054906101000a900473ffffffffffffffffffffffffffffffffffffffff1673ffffffffffffffffffffffffffffffffffffffff168152602001906001019080831161057f575b5050505050905090565b600181815481106105e357600080fd5b906000526020600020016000915054906101000a900473ffffffffffffffffffffffffffffffffffffffff1681565b600080fd5b600073ffffffffffffffffffffffffffffffffffffffff82169050919050565b600061064282610617565b9050919050565b61065281610637565b811461065d57600080fd5b50565b60008135905061066f81610649565b92915050565b60006020828403121561068b5761068a610612565b5b600061069984828501610660565b91505092915050565b6000819050919050565b6106b5816106a2565b82525050565b60006020820190506106d060008301846106ac565b92915050565b600081519050919050565b600082825260208201905092915050565b6000819050602082019050919050565b61070b81610637565b82525050565b600061071d8383610702565b60208301905092915050565b6000602082019050919050565b6000610741826106d6565b61074b81856106e1565b9350610756836106f2565b8060005b8381101561078757815161076e8882610711565b975061077983610729565b92505060018101905061075a565b5085935050505092915050565b600060208201905081810360008301526107ae8184610736565b905092915050565b6107bf816106a2565b81146107ca57600080fd5b50565b6000813590506107dc816107b6565b92915050565b6000602082840312156107f8576107f7610612565b5b6000610806848285016107cd565b91505092915050565b61081881610637565b82525050565b6000602082019050610833600083018461080f565b92915050565b7f4e487b7100000000000000000000000000000000000000000000000000000000600052601160045260246000fd5b6000610873826106a2565b915061087e836106a2565b9250827fffffffffffffffffffffffffffffffffffffffffffffffffffffffffffffffff038211156108b3576108b2610839565b5b828201905092915050565b600082825260208201905092915050565b7f596f7520646f6e277420686176652062616c616e636520746f2077697468647260008201527f6177000000000000000000000000000000000000000000000000000000000000602082015250565b600061092b6022836108be565b9150610936826108cf565b604082019050919050565b6000602082019050818103600083015261095a8161091e565b9050919050565b600061096c826106a2565b9150610977836106a2565b92508282101561098a57610989610839565b5b828203905092915050565b7f4e487b7100000000000000000000000000000000000000000000000000000000600052603260045260246000fd5b60006109cf826106a2565b91507fffffffffffffffffffffffffffffffffffffffffffffffffffffffffffffffff8203610a0157610a00610839565b5b600182019050919050565b7f4e487b7100000000000000000000000000000000000000000000000000000000600052603160045260246000fd5b600081905092915050565b50565b6000610a56600083610a3b565b9150610a6182610a46565b600082019050919050565b6000610a7782610a49565b9150819050919050565b7f4661696c656420746f2073656e6420757365722062616c616e6365206261636b60008201527f20746f2074686520757365720000000000000000000000000000000000000000602082015250565b6000610add602c836108be565b9150610ae882610a81565b604082019050919050565b60006020820190508181036000830152610b0c81610ad0565b905091905056fea264697066735822122089cfd4ae623837f734b4a4d183a81cd4f00558be518abcbb368396b52fd2317864736f6c634300080d0033",
  "linkReferences": {},
  "deployedLinkReferences": {}
}