{
  "_format": "hh-sol-artifact-1",
  "contractName": "Staker",
  "sourceName": "contracts/staker.sol",
  "abi": [
    {
      "anonymous": false,
      "inputs": [
        {
          "indexed": true,
          "internalType": "address",
          "name": "sender",
          "type": "address"
        },
        {
          "indexed": false,
          "internalType": "uint256",
          "name": "amount",
          "type": "uint256"
        }
      ],
      "name": "Stake",
      "type": "event"
    },
    {
      "stateMutability": "payable",
      "type": "fallback"
    },
    {
      "inputs": [
        {
          "internalType": "address",
          "name": "",
          "type": "address"
        }
      ],
      "name": "balances",
      "outputs": [
        {
          "internalType": "uint256",
          "name": "",
          "type": "uint256"
        }
      ],
      "stateMutability": "view",
      "type": "function"
    },
    {
      "inputs": [
        {
          "internalType": "address",
          "name": "userAddress",
          "type": "address"
        }
      ],
      "name": "getStakeAmount",
      "outputs": [
        {
          "internalType": "uint256",
          "name": "",
          "type": "uint256"
        }
      ],
      "stateMutability": "view",
      "type": "function"
    },
    {
      "inputs": [],
      "name": "getStakers",
      "outputs": [
        {
          "internalType": "address[]",
          "name": "",
          "type": "address[]"
        }
      ],
      "stateMutability": "view",
      "type": "function"
    },
    {
      "inputs": [],
      "name": "stake",
      "outputs": [],
      "stateMutability": "payable",
      "type": "function"
    },
    {
      "inputs": [
        {
          "internalType": "uint256",
          "name": "",
          "type": "uint256"
        }
      ],
      "name": "stakers",
      "outputs": [
        {
          "internalType": "address",
          "name": "",
          "type": "address"
        }
      ],
      "stateMutability": "view",
      "type": "function"
    },
    {
      "inputs": [],
      "name": "withdraw",
      "outputs": [],
      "stateMutability": "nonpayable",
      "type": "function"
    },
    {
      "stateMutability": "payable",
      "type": "receive"
    }
  ],
  "bytecode": "0x608060405234801561001057600080fd5b50610be1806100206000396000f3fe6080604052600436106100595760003560e01c80630c2eb4031461006257806327e235e31461009f5780633a4b66f1146100dc5780633ccfd60b146100e657806343352d61146100fd578063fd5e6dd11461012857610060565b3661006057005b005b34801561006e57600080fd5b506100896004803603810190610084919061070d565b610165565b6040516100969190610753565b60405180910390f35b3480156100ab57600080fd5b506100c660048036038101906100c1919061070d565b6101ad565b6040516100d39190610753565b60405180910390f35b6100e46101c5565b005b3480156100f257600080fd5b506100fb6102cd565b005b34801561010957600080fd5b506101126105dd565b60405161011f919061082c565b60405180910390f35b34801561013457600080fd5b5061014f600480360381019061014a919061087a565b61066b565b60405161015c91906108b6565b60405180910390f35b60008060008373ffffffffffffffffffffffffffffffffffffffff1673ffffffffffffffffffffffffffffffffffffffff168152602001908152602001600020549050919050565b60006020528060005260406000206000915090505481565b346000803373ffffffffffffffffffffffffffffffffffffffff1673ffffffffffffffffffffffffffffffffffffffff16815260200190815260200160002060008282546102139190610900565b925050819055506001339080600181540180825580915050600190039060005260206000200160009091909190916101000a81548173ffffffffffffffffffffffffffffffffffffffff021916908373ffffffffffffffffffffffffffffffffffffffff1602179055503373ffffffffffffffffffffffffffffffffffffffff167febedb8b3c678666e7f36970bc8f57abf6d8fa2e828c0da91ea5b75bf68ed101a346040516102c39190610753565b60405180910390a2565b60008060003373ffffffffffffffffffffffffffffffffffffffff1673ffffffffffffffffffffffffffffffffffffffff16815260200190815260200160002054905060008111610353576040517f08c379a000000000000000000000000000000000000000000000000000000000815260040161034a906109d9565b60405180910390fd5b60008060003373ffffffffffffffffffffffffffffffffffffffff1673ffffffffffffffffffffffffffffffffffffffff1681526020019081526020016000208190555060005b600180805490506103ab91906109f9565b8110156104e5573373ffffffffffffffffffffffffffffffffffffffff16600182815481106103dd576103dc610a2d565b5b9060005260206000200160009054906101000a900473ffffffffffffffffffffffffffffffffffffffff1673ffffffffffffffffffffffffffffffffffffffff16036104d257600180808054905061043591906109f9565b8154811061044657610445610a2d565b5b9060005260206000200160009054906101000a900473ffffffffffffffffffffffffffffffffffffffff166001828154811061048557610484610a2d565b5b9060005260206000200160006101000a81548173ffffffffffffffffffffffffffffffffffffffff021916908373ffffffffffffffffffffffffffffffffffffffff1602179055506104e5565b80806104dd90610a5c565b91505061039a565b5060018054806104f8576104f7610aa4565b5b6001900381819060005260206000200160006101000a81549073ffffffffffffffffffffffffffffffffffffffff0219169055905560003373ffffffffffffffffffffffffffffffffffffffff168260405161055390610b04565b60006040518083038185875af1925050503d8060008114610590576040519150601f19603f3d011682016040523d82523d6000602084013e610595565b606091505b50509050806105d9576040517f08c379a00000000000000000000000000000000000000000000000000000000081526004016105d090610b8b565b60405180910390fd5b5050565b6060600180548060200260200160405190810160405280929190818152602001828054801561066157602002820191906000526020600020905b8160009054906101000a900473ffffffffffffffffffffffffffffffffffffffff1673ffffffffffffffffffffffffffffffffffffffff1681526020019060010190808311610617575b5050505050905090565b6001818154811061067b57600080fd5b906000526020600020016000915054906101000a900473ffffffffffffffffffffffffffffffffffffffff1681565b600080fd5b600073ffffffffffffffffffffffffffffffffffffffff82169050919050565b60006106da826106af565b9050919050565b6106ea816106cf565b81146106f557600080fd5b50565b600081359050610707816106e1565b92915050565b600060208284031215610723576107226106aa565b5b6000610731848285016106f8565b91505092915050565b6000819050919050565b61074d8161073a565b82525050565b60006020820190506107686000830184610744565b92915050565b600081519050919050565b600082825260208201905092915050565b6000819050602082019050919050565b6107a3816106cf565b82525050565b60006107b5838361079a565b60208301905092915050565b6000602082019050919050565b60006107d98261076e565b6107e38185610779565b93506107ee8361078a565b8060005b8381101561081f57815161080688826107a9565b9750610811836107c1565b9250506001810190506107f2565b5085935050505092915050565b6000602082019050818103600083015261084681846107ce565b905092915050565b6108578161073a565b811461086257600080fd5b50565b6000813590506108748161084e565b92915050565b6000602082840312156108905761088f6106aa565b5b600061089e84828501610865565b91505092915050565b6108b0816106cf565b82525050565b60006020820190506108cb60008301846108a7565b92915050565b7f4e487b7100000000000000000000000000000000000000000000000000000000600052601160045260246000fd5b600061090b8261073a565b91506109168361073a565b9250827fffffffffffffffffffffffffffffffffffffffffffffffffffffffffffffffff0382111561094b5761094a6108d1565b5b828201905092915050565b600082825260208201905092915050565b7f596f7520646f6e277420686176652062616c616e636520746f2077697468647260008201527f6177000000000000000000000000000000000000000000000000000000000000602082015250565b60006109c3602283610956565b91506109ce82610967565b604082019050919050565b600060208201905081810360008301526109f2816109b6565b9050919050565b6000610a048261073a565b9150610a0f8361073a565b925082821015610a2257610a216108d1565b5b828203905092915050565b7f4e487b7100000000000000000000000000000000000000000000000000000000600052603260045260246000fd5b6000610a678261073a565b91507fffffffffffffffffffffffffffffffffffffffffffffffffffffffffffffffff8203610a9957610a986108d1565b5b600182019050919050565b7f4e487b7100000000000000000000000000000000000000000000000000000000600052603160045260246000fd5b600081905092915050565b50565b6000610aee600083610ad3565b9150610af982610ade565b600082019050919050565b6000610b0f82610ae1565b9150819050919050565b7f4661696c656420746f2073656e6420757365722062616c616e6365206261636b60008201527f20746f2074686520757365720000000000000000000000000000000000000000602082015250565b6000610b75602c83610956565b9150610b8082610b19565b604082019050919050565b60006020820190508181036000830152610ba481610b68565b905091905056fea264697066735822122005bf41156cc2fe5735bdfdb59b11e4c8965bffca5662cf1d0914ba992219bc5664736f6c634300080d0033",
  "linkReferences": {},
  "deployedLinkReferences": {}
}