{
  "_format": "hh-sol-artifact-1",
  "contractName": "Staker",
  "sourceName": "contracts/staker.sol",
  "abi": [
    {
      "anonymous": false,
      "inputs": [
        {
          "indexed": true,
          "internalType": "address",
          "name": "sender",
          "type": "address"
        },
        {
          "indexed": false,
          "internalType": "uint256",
          "name": "amount",
          "type": "uint256"
        }
      ],
      "name": "Stake",
      "type": "event"
    },
    {
      "stateMutability": "payable",
      "type": "fallback"
    },
    {
      "inputs": [
        {
          "internalType": "address",
          "name": "",
          "type": "address"
        }
      ],
      "name": "balances",
      "outputs": [
        {
          "internalType": "uint256",
          "name": "",
          "type": "uint256"
        }
      ],
      "stateMutability": "view",
      "type": "function"
    },
    {
      "inputs": [
        {
          "internalType": "address",
          "name": "userAddress",
          "type": "address"
        }
      ],
      "name": "getStakeAmount",
      "outputs": [
        {
          "internalType": "uint256",
          "name": "",
          "type": "uint256"
        }
      ],
      "stateMutability": "view",
      "type": "function"
    },
    {
      "inputs": [],
      "name": "getStakers",
      "outputs": [
        {
          "internalType": "address[]",
          "name": "",
          "type": "address[]"
        }
      ],
      "stateMutability": "view",
      "type": "function"
    },
    {
      "inputs": [],
      "name": "stake",
      "outputs": [],
      "stateMutability": "payable",
      "type": "function"
    },
    {
      "inputs": [
        {
          "internalType": "uint256",
          "name": "",
          "type": "uint256"
        }
      ],
      "name": "stakers",
      "outputs": [
        {
          "internalType": "address",
          "name": "",
          "type": "address"
        }
      ],
      "stateMutability": "view",
      "type": "function"
    },
    {
      "inputs": [],
      "name": "withdraw",
      "outputs": [],
      "stateMutability": "nonpayable",
      "type": "function"
    },
    {
      "stateMutability": "payable",
      "type": "receive"
    }
  ],
  "bytecode": "0x608060405234801561001057600080fd5b5061065f806100206000396000f3fe6080604052600436106100635760003560e01c80633ccfd60b116100405780633ccfd60b146100ea57806343352d61146100ff578063fd5e6dd11461012157005b80630c2eb4031461006c57806327e235e3146100b55780633a4b66f1146100e257005b3661006a57005b005b34801561007857600080fd5b506100a2610087366004610509565b6001600160a01b031660009081526020819052604090205490565b6040519081526020015b60405180910390f35b3480156100c157600080fd5b506100a26100d0366004610509565b60006020819052908152604090205481565b61006a610159565b3480156100f657600080fd5b5061006a610203565b34801561010b57600080fd5b5061011461047d565b6040516100ac9190610539565b34801561012d57600080fd5b5061014161013c366004610586565b6104df565b6040516001600160a01b0390911681526020016100ac565b33600090815260208190526040812080543492906101789084906105b5565b90915550506001805480820182556000919091527fb10e2d527612073b26eecdfd717e6a320cf44b4afac2b0732d9fcbe2b7fa0cf601805473ffffffffffffffffffffffffffffffffffffffff1916339081179091556040513481527febedb8b3c678666e7f36970bc8f57abf6d8fa2e828c0da91ea5b75bf68ed101a9060200160405180910390a2565b336000908152602081905260409020548061028b5760405162461bcd60e51b815260206004820152602260248201527f596f7520646f6e277420686176652062616c616e636520746f2077697468647260448201527f617700000000000000000000000000000000000000000000000000000000000060648201526084015b60405180910390fd5b3360009081526020819052604081208190555b600180546102ac91906105cd565b81101561037a57336001600160a01b0316600182815481106102d0576102d06105e4565b6000918252602090912001546001600160a01b03160361036857600180546102f99082906105cd565b81548110610309576103096105e4565b600091825260209091200154600180546001600160a01b039092169183908110610335576103356105e4565b9060005260206000200160006101000a8154816001600160a01b0302191690836001600160a01b0316021790555061037a565b80610372816105fa565b91505061029e565b50600180548061038c5761038c610613565b6000828152602081206000199083018101805473ffffffffffffffffffffffffffffffffffffffff19169055909101909155604051339083908381818185875af1925050503d80600081146103fd576040519150601f19603f3d011682016040523d82523d6000602084013e610402565b606091505b50509050806104795760405162461bcd60e51b815260206004820152602c60248201527f4661696c656420746f2073656e6420757365722062616c616e6365206261636b60448201527f20746f20746865207573657200000000000000000000000000000000000000006064820152608401610282565b5050565b606060018054806020026020016040519081016040528092919081815260200182805480156104d557602002820191906000526020600020905b81546001600160a01b031681526001909101906020018083116104b7575b5050505050905090565b600181815481106104ef57600080fd5b6000918252602090912001546001600160a01b0316905081565b60006020828403121561051b57600080fd5b81356001600160a01b038116811461053257600080fd5b9392505050565b6020808252825182820181905260009190848201906040850190845b8181101561057a5783516001600160a01b031683529284019291840191600101610555565b50909695505050505050565b60006020828403121561059857600080fd5b5035919050565b634e487b7160e01b600052601160045260246000fd5b600082198211156105c8576105c861059f565b500190565b6000828210156105df576105df61059f565b500390565b634e487b7160e01b600052603260045260246000fd5b60006001820161060c5761060c61059f565b5060010190565b634e487b7160e01b600052603160045260246000fdfea26469706673582212203d1ffdb20deef3a55b10a681aa5107232fe4042a3ff1272e4fde8c8a4cccccab64736f6c634300080d0033",
  "linkReferences": {},
  "deployedLinkReferences": {}
}